{
  "address": "0x629e01507abFc21E470DF153FFC9e4A5114c8922",
  "abi": [
    {
      "inputs": [],
      "stateMutability": "nonpayable",
      "type": "constructor"
    },
    {
      "anonymous": false,
      "inputs": [
        {
          "indexed": true,
          "internalType": "address",
          "name": "owner",
          "type": "address"
        },
        {
          "indexed": true,
          "internalType": "address",
          "name": "approved",
          "type": "address"
        },
        {
          "indexed": true,
          "internalType": "uint256",
          "name": "tokenId",
          "type": "uint256"
        }
      ],
      "name": "Approval",
      "type": "event"
    },
    {
      "anonymous": false,
      "inputs": [
        {
          "indexed": true,
          "internalType": "address",
          "name": "owner",
          "type": "address"
        },
        {
          "indexed": true,
          "internalType": "address",
          "name": "operator",
          "type": "address"
        },
        {
          "indexed": false,
          "internalType": "bool",
          "name": "approved",
          "type": "bool"
        }
      ],
      "name": "ApprovalForAll",
      "type": "event"
    },
    {
      "anonymous": false,
      "inputs": [
        {
          "indexed": true,
          "internalType": "address",
          "name": "from",
          "type": "address"
        },
        {
          "indexed": true,
          "internalType": "address",
          "name": "to",
          "type": "address"
        },
        {
          "indexed": true,
          "internalType": "uint256",
          "name": "tokenId",
          "type": "uint256"
        }
      ],
      "name": "Transfer",
      "type": "event"
    },
    {
      "inputs": [
        {
          "internalType": "address",
          "name": "to",
          "type": "address"
        },
        {
          "internalType": "uint256",
          "name": "tokenId",
          "type": "uint256"
        }
      ],
      "name": "approve",
      "outputs": [],
      "stateMutability": "nonpayable",
      "type": "function"
    },
    {
      "inputs": [
        {
          "internalType": "address",
          "name": "owner",
          "type": "address"
        }
      ],
      "name": "balanceOf",
      "outputs": [
        {
          "internalType": "uint256",
          "name": "",
          "type": "uint256"
        }
      ],
      "stateMutability": "view",
      "type": "function"
    },
    {
      "inputs": [
        {
          "internalType": "uint256",
          "name": "tokenId",
          "type": "uint256"
        }
      ],
      "name": "getApproved",
      "outputs": [
        {
          "internalType": "address",
          "name": "",
          "type": "address"
        }
      ],
      "stateMutability": "view",
      "type": "function"
    },
    {
      "inputs": [
        {
          "internalType": "address",
          "name": "owner",
          "type": "address"
        },
        {
          "internalType": "address",
          "name": "operator",
          "type": "address"
        }
      ],
      "name": "isApprovedForAll",
      "outputs": [
        {
          "internalType": "bool",
          "name": "",
          "type": "bool"
        }
      ],
      "stateMutability": "view",
      "type": "function"
    },
    {
      "inputs": [],
      "name": "name",
      "outputs": [
        {
          "internalType": "string",
          "name": "",
          "type": "string"
        }
      ],
      "stateMutability": "view",
      "type": "function"
    },
    {
      "inputs": [
        {
          "internalType": "uint256",
          "name": "tokenId",
          "type": "uint256"
        }
      ],
      "name": "ownerOf",
      "outputs": [
        {
          "internalType": "address",
          "name": "",
          "type": "address"
        }
      ],
      "stateMutability": "view",
      "type": "function"
    },
    {
      "inputs": [
        {
          "internalType": "string",
          "name": "uri",
          "type": "string"
        }
      ],
      "name": "safeMint",
      "outputs": [],
      "stateMutability": "nonpayable",
      "type": "function"
    },
    {
      "inputs": [
        {
          "internalType": "address",
          "name": "from",
          "type": "address"
        },
        {
          "internalType": "address",
          "name": "to",
          "type": "address"
        },
        {
          "internalType": "uint256",
          "name": "tokenId",
          "type": "uint256"
        }
      ],
      "name": "safeTransferFrom",
      "outputs": [],
      "stateMutability": "nonpayable",
      "type": "function"
    },
    {
      "inputs": [
        {
          "internalType": "address",
          "name": "from",
          "type": "address"
        },
        {
          "internalType": "address",
          "name": "to",
          "type": "address"
        },
        {
          "internalType": "uint256",
          "name": "tokenId",
          "type": "uint256"
        },
        {
          "internalType": "bytes",
          "name": "data",
          "type": "bytes"
        }
      ],
      "name": "safeTransferFrom",
      "outputs": [],
      "stateMutability": "nonpayable",
      "type": "function"
    },
    {
      "inputs": [
        {
          "internalType": "address",
          "name": "operator",
          "type": "address"
        },
        {
          "internalType": "bool",
          "name": "approved",
          "type": "bool"
        }
      ],
      "name": "setApprovalForAll",
      "outputs": [],
      "stateMutability": "nonpayable",
      "type": "function"
    },
    {
      "inputs": [
        {
          "internalType": "bytes4",
          "name": "interfaceId",
          "type": "bytes4"
        }
      ],
      "name": "supportsInterface",
      "outputs": [
        {
          "internalType": "bool",
          "name": "",
          "type": "bool"
        }
      ],
      "stateMutability": "view",
      "type": "function"
    },
    {
      "inputs": [],
      "name": "symbol",
      "outputs": [
        {
          "internalType": "string",
          "name": "",
          "type": "string"
        }
      ],
      "stateMutability": "view",
      "type": "function"
    },
    {
      "inputs": [
        {
          "internalType": "uint256",
          "name": "tokenId",
          "type": "uint256"
        }
      ],
      "name": "tokenURI",
      "outputs": [
        {
          "internalType": "string",
          "name": "",
          "type": "string"
        }
      ],
      "stateMutability": "view",
      "type": "function"
    },
    {
      "inputs": [
        {
          "internalType": "address",
          "name": "from",
          "type": "address"
        },
        {
          "internalType": "address",
          "name": "to",
          "type": "address"
        },
        {
          "internalType": "uint256",
          "name": "tokenId",
          "type": "uint256"
        }
      ],
      "name": "transferFrom",
      "outputs": [],
      "stateMutability": "nonpayable",
      "type": "function"
    }
  ],
  "transactionHash": "0xd74ea60c4f7719429163187103f9ff702169168381ae9a8f51f2a10b7afc1f40",
  "args": [],
  "numDeployments": 3,
  "solcInputHash": "9ddee5a6ee550809bbe795143454023a",
  "bytecode": "0x60806040523480156200001157600080fd5b506040518060400160405280600c81526020017f417765736f6d654275696c6400000000000000000000000000000000000000008152506040518060400160405280600381526020017f41534b000000000000000000000000000000000000000000000000000000000081525081600090816200008f919062000324565b508060019081620000a1919062000324565b5050506200040b565b600081519050919050565b7f4e487b7100000000000000000000000000000000000000000000000000000000600052604160045260246000fd5b7f4e487b7100000000000000000000000000000000000000000000000000000000600052602260045260246000fd5b600060028204905060018216806200012c57607f821691505b602082108103620001425762000141620000e4565b5b50919050565b60008190508160005260206000209050919050565b60006020601f8301049050919050565b600082821b905092915050565b600060088302620001ac7fffffffffffffffffffffffffffffffffffffffffffffffffffffffffffffffff826200016d565b620001b886836200016d565b95508019841693508086168417925050509392505050565b6000819050919050565b6000819050919050565b600062000205620001ff620001f984620001d0565b620001da565b620001d0565b9050919050565b6000819050919050565b6200022183620001e4565b6200023962000230826200020c565b8484546200017a565b825550505050565b600090565b6200025062000241565b6200025d81848462000216565b505050565b5b8181101562000285576200027960008262000246565b60018101905062000263565b5050565b601f821115620002d4576200029e8162000148565b620002a9846200015d565b81016020851015620002b9578190505b620002d1620002c8856200015d565b83018262000262565b50505b505050565b600082821c905092915050565b6000620002f960001984600802620002d9565b1980831691505092915050565b6000620003148383620002e6565b9150826002028217905092915050565b6200032f82620000aa565b67ffffffffffffffff8111156200034b576200034a620000b5565b5b62000357825462000113565b6200036482828562000289565b600060209050601f8311600181146200039c576000841562000387578287015190505b62000393858262000306565b86555062000403565b601f198416620003ac8662000148565b60005b82811015620003d657848901518255600182019150602085019450602081019050620003af565b86831015620003f65784890151620003f2601f891682620002e6565b8355505b6001600288020188555050505b505050505050565b612a93806200041b6000396000f3fe608060405234801561001057600080fd5b50600436106100ea5760003560e01c8063695850fb1161008c578063a22cb46511610066578063a22cb4651461025b578063b88d4fde14610277578063c87b56dd14610293578063e985e9c5146102c3576100ea565b8063695850fb146101f157806370a082311461020d57806395d89b411461023d576100ea565b8063095ea7b3116100c8578063095ea7b31461016d57806323b872dd1461018957806342842e0e146101a55780636352211e146101c1576100ea565b806301ffc9a7146100ef57806306fdde031461011f578063081812fc1461013d575b600080fd5b61010960048036038101906101049190611825565b6102f3565b604051610116919061186d565b60405180910390f35b6101276103d5565b6040516101349190611918565b60405180910390f35b61015760048036038101906101529190611970565b610467565b60405161016491906119de565b60405180910390f35b61018760048036038101906101829190611a25565b6104ad565b005b6101a3600480360381019061019e9190611a65565b6105c4565b005b6101bf60048036038101906101ba9190611a65565b610624565b005b6101db60048036038101906101d69190611970565b610644565b6040516101e891906119de565b60405180910390f35b61020b60048036038101906102069190611bed565b6106f5565b005b61022760048036038101906102229190611c36565b610725565b6040516102349190611c72565b60405180910390f35b6102456107dc565b6040516102529190611918565b60405180910390f35b61027560048036038101906102709190611cb9565b61086e565b005b610291600480360381019061028c9190611d9a565b610884565b005b6102ad60048036038101906102a89190611970565b6108e6565b6040516102ba9190611918565b60405180910390f35b6102dd60048036038101906102d89190611e1d565b6108f8565b6040516102ea919061186d565b60405180910390f35b60007f80ac58cd000000000000000000000000000000000000000000000000000000007bffffffffffffffffffffffffffffffffffffffffffffffffffffffff1916827bffffffffffffffffffffffffffffffffffffffffffffffffffffffff191614806103be57507f5b5e139f000000000000000000000000000000000000000000000000000000007bffffffffffffffffffffffffffffffffffffffffffffffffffffffff1916827bffffffffffffffffffffffffffffffffffffffffffffffffffffffff1916145b806103ce57506103cd8261098c565b5b9050919050565b6060600080546103e490611e8c565b80601f016020809104026020016040519081016040528092919081815260200182805461041090611e8c565b801561045d5780601f106104325761010080835404028352916020019161045d565b820191906000526020600020905b81548152906001019060200180831161044057829003601f168201915b5050505050905090565b6000610472826109f6565b6004600083815260200190815260200160002060009054906101000a900473ffffffffffffffffffffffffffffffffffffffff169050919050565b60006104b882610644565b90508073ffffffffffffffffffffffffffffffffffffffff168373ffffffffffffffffffffffffffffffffffffffff1603610528576040517f08c379a000000000000000000000000000000000000000000000000000000000815260040161051f90611f2f565b60405180910390fd5b8073ffffffffffffffffffffffffffffffffffffffff16610547610a41565b73ffffffffffffffffffffffffffffffffffffffff161480610576575061057581610570610a41565b6108f8565b5b6105b5576040517f08c379a00000000000000000000000000000000000000000000000000000000081526004016105ac90611fc1565b60405180910390fd5b6105bf8383610a49565b505050565b6105d56105cf610a41565b82610b02565b610614576040517f08c379a000000000000000000000000000000000000000000000000000000000815260040161060b90612053565b60405180910390fd5b61061f838383610b97565b505050565b61063f83838360405180602001604052806000815250610884565b505050565b6000806002600084815260200190815260200160002060009054906101000a900473ffffffffffffffffffffffffffffffffffffffff169050600073ffffffffffffffffffffffffffffffffffffffff168173ffffffffffffffffffffffffffffffffffffffff16036106ec576040517f08c379a00000000000000000000000000000000000000000000000000000000081526004016106e3906120bf565b60405180910390fd5b80915050919050565b60006107016007610dfd565b905061070d6007610e0b565b6107173382610e21565b6107218183610e3f565b5050565b60008073ffffffffffffffffffffffffffffffffffffffff168273ffffffffffffffffffffffffffffffffffffffff1603610795576040517f08c379a000000000000000000000000000000000000000000000000000000000815260040161078c90612151565b60405180910390fd5b600360008373ffffffffffffffffffffffffffffffffffffffff1673ffffffffffffffffffffffffffffffffffffffff168152602001908152602001600020549050919050565b6060600180546107eb90611e8c565b80601f016020809104026020016040519081016040528092919081815260200182805461081790611e8c565b80156108645780601f1061083957610100808354040283529160200191610864565b820191906000526020600020905b81548152906001019060200180831161084757829003601f168201915b5050505050905090565b610880610879610a41565b8383610eac565b5050565b61089561088f610a41565b83610b02565b6108d4576040517f08c379a00000000000000000000000000000000000000000000000000000000081526004016108cb90612053565b60405180910390fd5b6108e084848484611018565b50505050565b60606108f182611074565b9050919050565b6000600560008473ffffffffffffffffffffffffffffffffffffffff1673ffffffffffffffffffffffffffffffffffffffff16815260200190815260200160002060008373ffffffffffffffffffffffffffffffffffffffff1673ffffffffffffffffffffffffffffffffffffffff16815260200190815260200160002060009054906101000a900460ff16905092915050565b60007f01ffc9a7000000000000000000000000000000000000000000000000000000007bffffffffffffffffffffffffffffffffffffffffffffffffffffffff1916827bffffffffffffffffffffffffffffffffffffffffffffffffffffffff1916149050919050565b6109ff81611186565b610a3e576040517f08c379a0000000000000000000000000000000000000000000000000000000008152600401610a35906120bf565b60405180910390fd5b50565b600033905090565b816004600083815260200190815260200160002060006101000a81548173ffffffffffffffffffffffffffffffffffffffff021916908373ffffffffffffffffffffffffffffffffffffffff160217905550808273ffffffffffffffffffffffffffffffffffffffff16610abc83610644565b73ffffffffffffffffffffffffffffffffffffffff167f8c5be1e5ebec7d5bd14f71427d1e84f3dd0314c0f7b2291e5b200ac8c7c3b92560405160405180910390a45050565b600080610b0e83610644565b90508073ffffffffffffffffffffffffffffffffffffffff168473ffffffffffffffffffffffffffffffffffffffff161480610b505750610b4f81856108f8565b5b80610b8e57508373ffffffffffffffffffffffffffffffffffffffff16610b7684610467565b73ffffffffffffffffffffffffffffffffffffffff16145b91505092915050565b8273ffffffffffffffffffffffffffffffffffffffff16610bb782610644565b73ffffffffffffffffffffffffffffffffffffffff1614610c0d576040517f08c379a0000000000000000000000000000000000000000000000000000000008152600401610c04906121e3565b60405180910390fd5b600073ffffffffffffffffffffffffffffffffffffffff168273ffffffffffffffffffffffffffffffffffffffff1603610c7c576040517f08c379a0000000000000000000000000000000000000000000000000000000008152600401610c7390612275565b60405180910390fd5b610c878383836111f2565b610c92600082610a49565b6001600360008573ffffffffffffffffffffffffffffffffffffffff1673ffffffffffffffffffffffffffffffffffffffff1681526020019081526020016000206000828254610ce291906122c4565b925050819055506001600360008473ffffffffffffffffffffffffffffffffffffffff1673ffffffffffffffffffffffffffffffffffffffff1681526020019081526020016000206000828254610d3991906122f8565b92505081905550816002600083815260200190815260200160002060006101000a81548173ffffffffffffffffffffffffffffffffffffffff021916908373ffffffffffffffffffffffffffffffffffffffff160217905550808273ffffffffffffffffffffffffffffffffffffffff168473ffffffffffffffffffffffffffffffffffffffff167fddf252ad1be2c89b69c2b068fc378daa952ba7f163c4a11628f55a4df523b3ef60405160405180910390a4610df88383836111f7565b505050565b600081600001549050919050565b6001816000016000828254019250508190555050565b610e3b8282604051806020016040528060008152506111fc565b5050565b610e4882611186565b610e87576040517f08c379a0000000000000000000000000000000000000000000000000000000008152600401610e7e9061239e565b60405180910390fd5b80600660008481526020019081526020016000209081610ea7919061256a565b505050565b8173ffffffffffffffffffffffffffffffffffffffff168373ffffffffffffffffffffffffffffffffffffffff1603610f1a576040517f08c379a0000000000000000000000000000000000000000000000000000000008152600401610f1190612688565b60405180910390fd5b80600560008573ffffffffffffffffffffffffffffffffffffffff1673ffffffffffffffffffffffffffffffffffffffff16815260200190815260200160002060008473ffffffffffffffffffffffffffffffffffffffff1673ffffffffffffffffffffffffffffffffffffffff16815260200190815260200160002060006101000a81548160ff0219169083151502179055508173ffffffffffffffffffffffffffffffffffffffff168373ffffffffffffffffffffffffffffffffffffffff167f17307eab39ab6107e8899845ad3d59bd9653f200f220920489ca2b5937696c318360405161100b919061186d565b60405180910390a3505050565b611023848484610b97565b61102f84848484611257565b61106e576040517f08c379a00000000000000000000000000000000000000000000000000000000081526004016110659061271a565b60405180910390fd5b50505050565b606061107f826109f6565b600060066000848152602001908152602001600020805461109f90611e8c565b80601f01602080910402602001604051908101604052809291908181526020018280546110cb90611e8c565b80156111185780601f106110ed57610100808354040283529160200191611118565b820191906000526020600020905b8154815290600101906020018083116110fb57829003601f168201915b5050505050905060006111296113de565b9050600081510361113e578192505050611181565b60008251111561117357808260405160200161115b929190612776565b60405160208183030381529060405292505050611181565b61117c846113f5565b925050505b919050565b60008073ffffffffffffffffffffffffffffffffffffffff166002600084815260200190815260200160002060009054906101000a900473ffffffffffffffffffffffffffffffffffffffff1673ffffffffffffffffffffffffffffffffffffffff1614159050919050565b505050565b505050565b611206838361145d565b6112136000848484611257565b611252576040517f08c379a00000000000000000000000000000000000000000000000000000000081526004016112499061271a565b60405180910390fd5b505050565b60006112788473ffffffffffffffffffffffffffffffffffffffff16611636565b156113d1578373ffffffffffffffffffffffffffffffffffffffff1663150b7a026112a1610a41565b8786866040518563ffffffff1660e01b81526004016112c394939291906127ef565b6020604051808303816000875af19250505080156112ff57506040513d601f19601f820116820180604052508101906112fc9190612850565b60015b611381573d806000811461132f576040519150601f19603f3d011682016040523d82523d6000602084013e611334565b606091505b506000815103611379576040517f08c379a00000000000000000000000000000000000000000000000000000000081526004016113709061271a565b60405180910390fd5b805181602001fd5b63150b7a0260e01b7bffffffffffffffffffffffffffffffffffffffffffffffffffffffff1916817bffffffffffffffffffffffffffffffffffffffffffffffffffffffff1916149150506113d6565b600190505b949350505050565b606060405180602001604052806000815250905090565b6060611400826109f6565b600061140a6113de565b9050600081511161142a5760405180602001604052806000815250611455565b8061143484611659565b604051602001611445929190612776565b6040516020818303038152906040525b915050919050565b600073ffffffffffffffffffffffffffffffffffffffff168273ffffffffffffffffffffffffffffffffffffffff16036114cc576040517f08c379a00000000000000000000000000000000000000000000000000000000081526004016114c3906128c9565b60405180910390fd5b6114d581611186565b15611515576040517f08c379a000000000000000000000000000000000000000000000000000000000815260040161150c90612935565b60405180910390fd5b611521600083836111f2565b6001600360008473ffffffffffffffffffffffffffffffffffffffff1673ffffffffffffffffffffffffffffffffffffffff168152602001908152602001600020600082825461157191906122f8565b92505081905550816002600083815260200190815260200160002060006101000a81548173ffffffffffffffffffffffffffffffffffffffff021916908373ffffffffffffffffffffffffffffffffffffffff160217905550808273ffffffffffffffffffffffffffffffffffffffff16600073ffffffffffffffffffffffffffffffffffffffff167fddf252ad1be2c89b69c2b068fc378daa952ba7f163c4a11628f55a4df523b3ef60405160405180910390a4611632600083836111f7565b5050565b6000808273ffffffffffffffffffffffffffffffffffffffff163b119050919050565b6060600082036116a0576040518060400160405280600181526020017f300000000000000000000000000000000000000000000000000000000000000081525090506117b4565b600082905060005b600082146116d25780806116bb90612955565b915050600a826116cb91906129cc565b91506116a8565b60008167ffffffffffffffff8111156116ee576116ed611ac2565b5b6040519080825280601f01601f1916602001820160405280156117205781602001600182028036833780820191505090505b5090505b600085146117ad5760018261173991906122c4565b9150600a8561174891906129fd565b603061175491906122f8565b60f81b81838151811061176a57611769612a2e565b5b60200101907effffffffffffffffffffffffffffffffffffffffffffffffffffffffffffff1916908160001a905350600a856117a691906129cc565b9450611724565b8093505050505b919050565b6000604051905090565b600080fd5b600080fd5b60007fffffffff0000000000000000000000000000000000000000000000000000000082169050919050565b611802816117cd565b811461180d57600080fd5b50565b60008135905061181f816117f9565b92915050565b60006020828403121561183b5761183a6117c3565b5b600061184984828501611810565b91505092915050565b60008115159050919050565b61186781611852565b82525050565b6000602082019050611882600083018461185e565b92915050565b600081519050919050565b600082825260208201905092915050565b60005b838110156118c25780820151818401526020810190506118a7565b60008484015250505050565b6000601f19601f8301169050919050565b60006118ea82611888565b6118f48185611893565b93506119048185602086016118a4565b61190d816118ce565b840191505092915050565b6000602082019050818103600083015261193281846118df565b905092915050565b6000819050919050565b61194d8161193a565b811461195857600080fd5b50565b60008135905061196a81611944565b92915050565b600060208284031215611986576119856117c3565b5b60006119948482850161195b565b91505092915050565b600073ffffffffffffffffffffffffffffffffffffffff82169050919050565b60006119c88261199d565b9050919050565b6119d8816119bd565b82525050565b60006020820190506119f360008301846119cf565b92915050565b611a02816119bd565b8114611a0d57600080fd5b50565b600081359050611a1f816119f9565b92915050565b60008060408385031215611a3c57611a3b6117c3565b5b6000611a4a85828601611a10565b9250506020611a5b8582860161195b565b9150509250929050565b600080600060608486031215611a7e57611a7d6117c3565b5b6000611a8c86828701611a10565b9350506020611a9d86828701611a10565b9250506040611aae8682870161195b565b9150509250925092565b600080fd5b600080fd5b7f4e487b7100000000000000000000000000000000000000000000000000000000600052604160045260246000fd5b611afa826118ce565b810181811067ffffffffffffffff82111715611b1957611b18611ac2565b5b80604052505050565b6000611b2c6117b9565b9050611b388282611af1565b919050565b600067ffffffffffffffff821115611b5857611b57611ac2565b5b611b61826118ce565b9050602081019050919050565b82818337600083830152505050565b6000611b90611b8b84611b3d565b611b22565b905082815260208101848484011115611bac57611bab611abd565b5b611bb7848285611b6e565b509392505050565b600082601f830112611bd457611bd3611ab8565b5b8135611be4848260208601611b7d565b91505092915050565b600060208284031215611c0357611c026117c3565b5b600082013567ffffffffffffffff811115611c2157611c206117c8565b5b611c2d84828501611bbf565b91505092915050565b600060208284031215611c4c57611c4b6117c3565b5b6000611c5a84828501611a10565b91505092915050565b611c6c8161193a565b82525050565b6000602082019050611c876000830184611c63565b92915050565b611c9681611852565b8114611ca157600080fd5b50565b600081359050611cb381611c8d565b92915050565b60008060408385031215611cd057611ccf6117c3565b5b6000611cde85828601611a10565b9250506020611cef85828601611ca4565b9150509250929050565b600067ffffffffffffffff821115611d1457611d13611ac2565b5b611d1d826118ce565b9050602081019050919050565b6000611d3d611d3884611cf9565b611b22565b905082815260208101848484011115611d5957611d58611abd565b5b611d64848285611b6e565b509392505050565b600082601f830112611d8157611d80611ab8565b5b8135611d91848260208601611d2a565b91505092915050565b60008060008060808587031215611db457611db36117c3565b5b6000611dc287828801611a10565b9450506020611dd387828801611a10565b9350506040611de48782880161195b565b925050606085013567ffffffffffffffff811115611e0557611e046117c8565b5b611e1187828801611d6c565b91505092959194509250565b60008060408385031215611e3457611e336117c3565b5b6000611e4285828601611a10565b9250506020611e5385828601611a10565b9150509250929050565b7f4e487b7100000000000000000000000000000000000000000000000000000000600052602260045260246000fd5b60006002820490506001821680611ea457607f821691505b602082108103611eb757611eb6611e5d565b5b50919050565b7f4552433732313a20617070726f76616c20746f2063757272656e74206f776e6560008201527f7200000000000000000000000000000000000000000000000000000000000000602082015250565b6000611f19602183611893565b9150611f2482611ebd565b604082019050919050565b60006020820190508181036000830152611f4881611f0c565b9050919050565b7f4552433732313a20617070726f76652063616c6c6572206973206e6f7420746f60008201527f6b656e206f776e6572206e6f7220617070726f76656420666f7220616c6c0000602082015250565b6000611fab603e83611893565b9150611fb682611f4f565b604082019050919050565b60006020820190508181036000830152611fda81611f9e565b9050919050565b7f4552433732313a2063616c6c6572206973206e6f7420746f6b656e206f776e6560008201527f72206e6f7220617070726f766564000000000000000000000000000000000000602082015250565b600061203d602e83611893565b915061204882611fe1565b604082019050919050565b6000602082019050818103600083015261206c81612030565b9050919050565b7f4552433732313a20696e76616c696420746f6b656e2049440000000000000000600082015250565b60006120a9601883611893565b91506120b482612073565b602082019050919050565b600060208201905081810360008301526120d88161209c565b9050919050565b7f4552433732313a2061646472657373207a65726f206973206e6f74206120766160008201527f6c6964206f776e65720000000000000000000000000000000000000000000000602082015250565b600061213b602983611893565b9150612146826120df565b604082019050919050565b6000602082019050818103600083015261216a8161212e565b9050919050565b7f4552433732313a207472616e736665722066726f6d20696e636f72726563742060008201527f6f776e6572000000000000000000000000000000000000000000000000000000602082015250565b60006121cd602583611893565b91506121d882612171565b604082019050919050565b600060208201905081810360008301526121fc816121c0565b9050919050565b7f4552433732313a207472616e7366657220746f20746865207a65726f2061646460008201527f7265737300000000000000000000000000000000000000000000000000000000602082015250565b600061225f602483611893565b915061226a82612203565b604082019050919050565b6000602082019050818103600083015261228e81612252565b9050919050565b7f4e487b7100000000000000000000000000000000000000000000000000000000600052601160045260246000fd5b60006122cf8261193a565b91506122da8361193a565b92508282039050818111156122f2576122f1612295565b5b92915050565b60006123038261193a565b915061230e8361193a565b925082820190508082111561232657612325612295565b5b92915050565b7f45524337323155524953746f726167653a2055524920736574206f66206e6f6e60008201527f6578697374656e7420746f6b656e000000000000000000000000000000000000602082015250565b6000612388602e83611893565b91506123938261232c565b604082019050919050565b600060208201905081810360008301526123b78161237b565b9050919050565b60008190508160005260206000209050919050565b60006020601f8301049050919050565b600082821b905092915050565b6000600883026124207fffffffffffffffffffffffffffffffffffffffffffffffffffffffffffffffff826123e3565b61242a86836123e3565b95508019841693508086168417925050509392505050565b6000819050919050565b600061246761246261245d8461193a565b612442565b61193a565b9050919050565b6000819050919050565b6124818361244c565b61249561248d8261246e565b8484546123f0565b825550505050565b600090565b6124aa61249d565b6124b5818484612478565b505050565b5b818110156124d9576124ce6000826124a2565b6001810190506124bb565b5050565b601f82111561251e576124ef816123be565b6124f8846123d3565b81016020851015612507578190505b61251b612513856123d3565b8301826124ba565b50505b505050565b600082821c905092915050565b600061254160001984600802612523565b1980831691505092915050565b600061255a8383612530565b9150826002028217905092915050565b61257382611888565b67ffffffffffffffff81111561258c5761258b611ac2565b5b6125968254611e8c565b6125a18282856124dd565b600060209050601f8311600181146125d457600084156125c2578287015190505b6125cc858261254e565b865550612634565b601f1984166125e2866123be565b60005b8281101561260a578489015182556001820191506020850194506020810190506125e5565b868310156126275784890151612623601f891682612530565b8355505b6001600288020188555050505b505050505050565b7f4552433732313a20617070726f766520746f2063616c6c657200000000000000600082015250565b6000612672601983611893565b915061267d8261263c565b602082019050919050565b600060208201905081810360008301526126a181612665565b9050919050565b7f4552433732313a207472616e7366657220746f206e6f6e20455243373231526560008201527f63656976657220696d706c656d656e7465720000000000000000000000000000602082015250565b6000612704603283611893565b915061270f826126a8565b604082019050919050565b60006020820190508181036000830152612733816126f7565b9050919050565b600081905092915050565b600061275082611888565b61275a818561273a565b935061276a8185602086016118a4565b80840191505092915050565b60006127828285612745565b915061278e8284612745565b91508190509392505050565b600081519050919050565b600082825260208201905092915050565b60006127c18261279a565b6127cb81856127a5565b93506127db8185602086016118a4565b6127e4816118ce565b840191505092915050565b600060808201905061280460008301876119cf565b61281160208301866119cf565b61281e6040830185611c63565b818103606083015261283081846127b6565b905095945050505050565b60008151905061284a816117f9565b92915050565b600060208284031215612866576128656117c3565b5b60006128748482850161283b565b91505092915050565b7f4552433732313a206d696e7420746f20746865207a65726f2061646472657373600082015250565b60006128b3602083611893565b91506128be8261287d565b602082019050919050565b600060208201905081810360008301526128e2816128a6565b9050919050565b7f4552433732313a20746f6b656e20616c7265616479206d696e74656400000000600082015250565b600061291f601c83611893565b915061292a826128e9565b602082019050919050565b6000602082019050818103600083015261294e81612912565b9050919050565b60006129608261193a565b91507fffffffffffffffffffffffffffffffffffffffffffffffffffffffffffffffff820361299257612991612295565b5b600182019050919050565b7f4e487b7100000000000000000000000000000000000000000000000000000000600052601260045260246000fd5b60006129d78261193a565b91506129e28361193a565b9250826129f2576129f161299d565b5b828204905092915050565b6000612a088261193a565b9150612a138361193a565b925082612a2357612a2261299d565b5b828206905092915050565b7f4e487b7100000000000000000000000000000000000000000000000000000000600052603260045260246000fdfea2646970667358221220dbc94c9b819d288e0f1d3ed47eee891d5375bf21967231dffdaa5fe6e075d0ef64736f6c63430008110033",
  "devdoc": {
    "kind": "dev",
    "methods": {
      "approve(address,uint256)": {
        "details": "See {IERC721-approve}."
      },
      "balanceOf(address)": {
        "details": "See {IERC721-balanceOf}."
      },
      "getApproved(uint256)": {
        "details": "See {IERC721-getApproved}."
      },
      "isApprovedForAll(address,address)": {
        "details": "See {IERC721-isApprovedForAll}."
      },
      "name()": {
        "details": "See {IERC721Metadata-name}."
      },
      "ownerOf(uint256)": {
        "details": "See {IERC721-ownerOf}."
      },
      "safeTransferFrom(address,address,uint256)": {
        "details": "See {IERC721-safeTransferFrom}."
      },
      "safeTransferFrom(address,address,uint256,bytes)": {
        "details": "See {IERC721-safeTransferFrom}."
      },
      "setApprovalForAll(address,bool)": {
        "details": "See {IERC721-setApprovalForAll}."
      },
      "supportsInterface(bytes4)": {
        "details": "See {IERC165-supportsInterface}."
      },
      "symbol()": {
        "details": "See {IERC721Metadata-symbol}."
      },
      "transferFrom(address,address,uint256)": {
        "details": "See {IERC721-transferFrom}."
      }
    },
    "version": 1
  },
  "userdoc": {
    "kind": "user",
    "methods": {},
    "version": 1
  },
  "storageLayout": {
    "storage": [
      {
        "astId": 25,
        "contract": "contracts/Minter.sol:Minter",
        "label": "_name",
        "offset": 0,
        "slot": "0",
        "type": "t_string_storage"
      },
      {
        "astId": 27,
        "contract": "contracts/Minter.sol:Minter",
        "label": "_symbol",
        "offset": 0,
        "slot": "1",
        "type": "t_string_storage"
      },
      {
        "astId": 31,
        "contract": "contracts/Minter.sol:Minter",
        "label": "_owners",
        "offset": 0,
        "slot": "2",
        "type": "t_mapping(t_uint256,t_address)"
      },
      {
        "astId": 35,
        "contract": "contracts/Minter.sol:Minter",
        "label": "_balances",
        "offset": 0,
        "slot": "3",
        "type": "t_mapping(t_address,t_uint256)"
      },
      {
        "astId": 39,
        "contract": "contracts/Minter.sol:Minter",
        "label": "_tokenApprovals",
        "offset": 0,
        "slot": "4",
        "type": "t_mapping(t_uint256,t_address)"
      },
      {
        "astId": 45,
        "contract": "contracts/Minter.sol:Minter",
        "label": "_operatorApprovals",
        "offset": 0,
        "slot": "5",
        "type": "t_mapping(t_address,t_mapping(t_address,t_bool))"
      },
      {
        "astId": 1013,
        "contract": "contracts/Minter.sol:Minter",
        "label": "_tokenURIs",
        "offset": 0,
        "slot": "6",
        "type": "t_mapping(t_uint256,t_string_storage)"
      },
      {
        "astId": 1821,
        "contract": "contracts/Minter.sol:Minter",
        "label": "_tokenIdCounter",
        "offset": 0,
        "slot": "7",
        "type": "t_struct(Counter)1475_storage"
      }
    ],
    "types": {
      "t_address": {
        "encoding": "inplace",
        "label": "address",
        "numberOfBytes": "20"
      },
      "t_bool": {
        "encoding": "inplace",
        "label": "bool",
        "numberOfBytes": "1"
      },
      "t_mapping(t_address,t_bool)": {
        "encoding": "mapping",
        "key": "t_address",
        "label": "mapping(address => bool)",
        "numberOfBytes": "32",
        "value": "t_bool"
      },
      "t_mapping(t_address,t_mapping(t_address,t_bool))": {
        "encoding": "mapping",
        "key": "t_address",
        "label": "mapping(address => mapping(address => bool))",
        "numberOfBytes": "32",
        "value": "t_mapping(t_address,t_bool)"
      },
      "t_mapping(t_address,t_uint256)": {
        "encoding": "mapping",
        "key": "t_address",
        "label": "mapping(address => uint256)",
        "numberOfBytes": "32",
        "value": "t_uint256"
      },
      "t_mapping(t_uint256,t_address)": {
        "encoding": "mapping",
        "key": "t_uint256",
        "label": "mapping(uint256 => address)",
        "numberOfBytes": "32",
        "value": "t_address"
      },
      "t_mapping(t_uint256,t_string_storage)": {
        "encoding": "mapping",
        "key": "t_uint256",
        "label": "mapping(uint256 => string)",
        "numberOfBytes": "32",
        "value": "t_string_storage"
      },
      "t_string_storage": {
        "encoding": "bytes",
        "label": "string",
        "numberOfBytes": "32"
      },
      "t_struct(Counter)1475_storage": {
        "encoding": "inplace",
        "label": "struct Counters.Counter",
        "members": [
          {
            "astId": 1474,
            "contract": "contracts/Minter.sol:Minter",
            "label": "_value",
            "offset": 0,
            "slot": "0",
            "type": "t_uint256"
          }
        ],
        "numberOfBytes": "32"
      },
      "t_uint256": {
        "encoding": "inplace",
        "label": "uint256",
        "numberOfBytes": "32"
      }
    }
  }
}